:100121000F08C0F9A4B099928280908883C6A186F5
:0E0131008E08170000000000000000011F00F3
:1000FC007518FF7519FF751AFF751BFF751CFF75B9
:10010C001DFF751EFF1200C67408251FF8E6F517B3
:05011C0012008F80F0CD
:10008F007F01E4FEEEC3940874809480502875A01D
:10009F00DF8F8075A01F7580FF75A01F74172EF856
:1000AF00E6F58075A01FE4F5807801EF0880012345
:0600BF00D8FDFF0E80CE0B
:0100C5002218
:1000C60075B0FFAFB0EFF4602CAFB0EFF46026AFC1
:1000D600B0EF2405601024FE60111460132407702D
:1000E600E8751F0180E3751F0280DE751F0380D946
:0600F600751F0480D422F6
:03000000020003F8
:0C000300787FE4F6D8FD75811F02004AEA
:10000F000200FCE493A3F8E493A34003F68001F20B
:10001F0008DFF48029E493A3F85407240CC8C333F2
:10002F00C4540F4420C8834004F456800146F6DFC1
:10003F00E4800B0102040810204080900121E47E2F
:10004F00019360BCA3FF543F30E509541FFEE493B6
:10005F00A360010ECF54C025E060A840B8E493A37D
:10006F00FAE493A3F8E493A3C8C582C8CAC583CAA8
:10007F00F0A3C8C582C8CAC583CADFE9DEE780BE60
:01013F0000BF
:00000001FF
