:1000C2001009C0F9A4B0999282F880908883C6A1E1
:0500D200868E0108000C
:10008F001200E7E4F508C3E50894107480948050DB
:0B009F00F21200AA1200D8050880EB46
:1000AA0075A09F7580FF75A0DF7580FF75A0FF742E
:0800BA00092508F8E6F5802293
:0700E70075A0BFE4F58022C3
:0E00D80000007F2B7E067DCBDDFEDEFCDFFA16
:0100E60022F7
:03000000020003F8
:0C000300787FE4F6D8FD75811802004AF1
:10000F0002008FE493A3F8E493A34003F68001F278
:10001F0008DFF48029E493A3F85407240CC8C333F2
:10002F00C4540F4420C8834004F456800146F6DFC1
:10003F00E4800B01020408102040809000C2E47E8F
:10004F00019360BCA3FF543F30E509541FFEE493B6
:10005F00A360010ECF54C025E060A840B8E493A37D
:10006F00FAE493A3F8E493A3C8C582C8CAC583CAA8
:10007F00F0A3C8C582C8CAC583CADFE9DEE780BE60
:0100D7000028
:00000001FF
